{
  "contractName": "Bingo",
  "abi": [
    {
      "inputs": [
        {
          "internalType": "uint8",
          "name": "_maxCards",
          "type": "uint8"
        }
      ],
      "stateMutability": "nonpayable",
      "type": "constructor"
    },
    {
      "inputs": [],
      "name": "admin",
      "outputs": [
        {
          "internalType": "address",
          "name": "",
          "type": "address"
        }
      ],
      "stateMutability": "view",
      "type": "function"
    },
    {
      "inputs": [
        {
          "internalType": "uint256",
          "name": "",
          "type": "uint256"
        },
        {
          "internalType": "uint256",
          "name": "",
          "type": "uint256"
        }
      ],
      "name": "cards",
      "outputs": [
        {
          "internalType": "address",
          "name": "",
          "type": "address"
        }
      ],
      "stateMutability": "view",
      "type": "function"
    },
    {
      "inputs": [
        {
          "internalType": "address",
          "name": "",
          "type": "address"
        }
      ],
      "name": "counter",
      "outputs": [
        {
          "internalType": "uint8",
          "name": "",
          "type": "uint8"
        }
      ],
      "stateMutability": "view",
      "type": "function"
    },
    {
      "inputs": [
        {
          "internalType": "uint256",
          "name": "",
          "type": "uint256"
        },
        {
          "internalType": "address",
          "name": "",
          "type": "address"
        }
      ],
      "name": "counterLines",
      "outputs": [
        {
          "internalType": "uint8",
          "name": "",
          "type": "uint8"
        }
      ],
      "stateMutability": "view",
      "type": "function"
    },
    {
      "inputs": [
        {
          "internalType": "uint256",
          "name": "",
          "type": "uint256"
        },
        {
          "internalType": "uint256",
          "name": "",
          "type": "uint256"
        },
        {
          "internalType": "uint256",
          "name": "",
          "type": "uint256"
        }
      ],
      "name": "lines",
      "outputs": [
        {
          "internalType": "address",
          "name": "",
          "type": "address"
        }
      ],
      "stateMutability": "view",
      "type": "function"
    },
    {
      "inputs": [],
      "name": "maxCards",
      "outputs": [
        {
          "internalType": "uint8",
          "name": "",
          "type": "uint8"
        }
      ],
      "stateMutability": "view",
      "type": "function"
    },
    {
      "inputs": [
        {
          "internalType": "uint256",
          "name": "",
          "type": "uint256"
        }
      ],
      "name": "players",
      "outputs": [
        {
          "internalType": "address",
          "name": "",
          "type": "address"
        }
      ],
      "stateMutability": "view",
      "type": "function"
    },
    {
      "inputs": [
        {
          "internalType": "address",
          "name": "",
          "type": "address"
        }
      ],
      "name": "prizes",
      "outputs": [
        {
          "internalType": "uint256",
          "name": "",
          "type": "uint256"
        }
      ],
      "stateMutability": "view",
      "type": "function"
    },
    {
      "inputs": [],
      "name": "state",
      "outputs": [
        {
          "internalType": "enum Bingo.State",
          "name": "",
          "type": "uint8"
        }
      ],
      "stateMutability": "view",
      "type": "function"
    },
    {
      "inputs": [],
      "name": "timeLastCard",
      "outputs": [
        {
          "internalType": "uint256",
          "name": "",
          "type": "uint256"
        }
      ],
      "stateMutability": "view",
      "type": "function"
    },
    {
      "inputs": [],
      "name": "drawGameNumbers",
      "outputs": [],
      "stateMutability": "nonpayable",
      "type": "function"
    },
    {
      "inputs": [],
      "name": "generateCard",
      "outputs": [],
      "stateMutability": "payable",
      "type": "function"
    },
    {
      "inputs": [],
      "name": "startGame",
      "outputs": [],
      "stateMutability": "nonpayable",
      "type": "function"
    },
    {
      "inputs": [],
      "name": "forceReset",
      "outputs": [],
      "stateMutability": "nonpayable",
      "type": "function"
    }
  ],
  "bytecode": "0x6080604052600061017060006101000a81548160ff021916908360018111156200002e576200002d620000f3565b5b02179055507f75e07b686570bbcc103a79ccc90ff45b93f46fd6054bf080b0005512e6415e7160001b610173553480156200006857600080fd5b506040516200234a3803806200234a83398181016040528101906200008e919062000165565b8061017060016101000a81548160ff021916908360ff1602179055503361017260006101000a81548173ffffffffffffffffffffffffffffffffffffffff021916908373ffffffffffffffffffffffffffffffffffffffff1602179055505062000197565b7f4e487b7100000000000000000000000000000000000000000000000000000000600052602160045260246000fd5b600080fd5b600060ff82169050919050565b6200013f8162000127565b81146200014b57600080fd5b50565b6000815190506200015f8162000134565b92915050565b6000602082840312156200017e576200017d62000122565b5b60006200018e848285016200014e565b91505092915050565b6121a380620001a76000396000f3fe6080604052600436106100dd5760003560e01c80639eb4a35f1161007f578063c19d93fb11610059578063c19d93fb146102a1578063d65ab5f2146102cc578063f71d96cb146102e3578063f851a44014610320576100dd565b80639eb4a35f1461021d578063b35d11bf14610227578063c12327b814610264576100dd565b80635b0031ba116100bb5780635b0031ba146101755780636a04e8bd1461018c5780638b680cc3146101c95780638dad19d1146101e0576100dd565b806308b237b5146100e2578063144766ed1461010d5780631c91b3ab1461014a575b600080fd5b3480156100ee57600080fd5b506100f761034b565b6040516101049190611974565b60405180910390f35b34801561011957600080fd5b50610134600480360381019061012f9190611a28565b61035f565b6040516101419190611974565b60405180910390f35b34801561015657600080fd5b5061015f610392565b60405161016c9190611a77565b60405180910390f35b34801561018157600080fd5b5061018a610399565b005b34801561019857600080fd5b506101b360048036038101906101ae9190611a92565b6105ad565b6040516101c09190611af4565b60405180910390f35b3480156101d557600080fd5b506101de610611565b005b3480156101ec57600080fd5b5061020760048036038101906102029190611b0f565b61081d565b6040516102149190611af4565b60405180910390f35b61022561086e565b005b34801561023357600080fd5b5061024e60048036038101906102499190611b4f565b610b21565b60405161025b9190611a77565b60405180910390f35b34801561027057600080fd5b5061028b60048036038101906102869190611b4f565b610b3a565b6040516102989190611974565b60405180910390f35b3480156102ad57600080fd5b506102b6610b5b565b6040516102c39190611bf3565b60405180910390f35b3480156102d857600080fd5b506102e1610b6f565b005b3480156102ef57600080fd5b5061030a60048036038101906103059190611c0e565b610ca0565b6040516103179190611af4565b60405180910390f35b34801561032c57600080fd5b50610335610ce0565b6040516103429190611af4565b60405180910390f35b61017060019054906101000a900460ff1681565b61016b826003811061037057600080fd5b016020528060005260406000206000915091509054906101000a900460ff1681565b6101715481565b6001808111156103ac576103ab611b7c565b5b61017060009054906101000a900460ff1660018111156103cf576103ce611b7c565b5b1461040f576040517f08c379a000000000000000000000000000000000000000000000000000000000815260040161040690611c98565b60405180910390fd5b610173546040516020016104239190611cd1565b60405160208183030381529060405280519060200120610173819055506104486118d4565b60005b605a8160ff1610156104925780828260ff16605a811061046e5761046d611cec565b5b602002019060ff16908160ff1681525050808061048a90611d4a565b91505061044b565b5060005b605a8160ff1610156105a95760008160ff1682605a6104b59190611d73565b60ff166101735460001c6104c99190611dd7565b6104d39190611e08565b90506000838260ff16605a81106104ed576104ec611cec565b5b60200201519050838360ff16605a811061050a57610509611cec565b5b6020020151848360ff16605a811061052557610524611cec565b5b602002019060ff16908160ff168152505080848460ff16605a811061054d5761054c611cec565b5b602002019060ff16908160ff16815250506000610583858560ff16605a811061057957610578611cec565b5b6020020151610d07565b90508015610593575050506105a9565b50505080806105a190611d4a565b915050610496565b5050565b605a83600381106105bd57600080fd5b605a020182605a81106105cf57600080fd5b0181815481106105de57600080fd5b90600052602060002001600092509250509054906101000a900473ffffffffffffffffffffffffffffffffffffffff1681565b61017260009054906101000a900473ffffffffffffffffffffffffffffffffffffffff1673ffffffffffffffffffffffffffffffffffffffff163373ffffffffffffffffffffffffffffffffffffffff16146106a2576040517f08c379a000000000000000000000000000000000000000000000000000000000815260040161069990611e88565b60405180910390fd5b6001808111156106b5576106b4611b7c565b5b61017060009054906101000a900460ff1660018111156106d8576106d7611b7c565b5b14610718576040517f08c379a000000000000000000000000000000000000000000000000000000000815260040161070f90611c98565b60405180910390fd5b60005b610168805490508160ff1610156107e65760006101688260ff168154811061074657610745611cec565b5b9060005260206000200160009054906101000a900473ffffffffffffffffffffffffffffffffffffffff16905067016345785d8a000061016960008373ffffffffffffffffffffffffffffffffffffffff1673ffffffffffffffffffffffffffffffffffffffff16815260200190815260200160002060008282546107cb9190611e08565b925050819055505080806107de90611d4a565b91505061071b565b50600061017060006101000a81548160ff0219169083600181111561080e5761080d611b7c565b5b021790555061081b6110f0565b565b600082605a811061082d57600080fd5b01818154811061083c57600080fd5b906000526020600020016000915091509054906101000a900473ffffffffffffffffffffffffffffffffffffffff1681565b6000600181111561088257610881611b7c565b5b61017060009054906101000a900460ff1660018111156108a5576108a4611b7c565b5b146108e5576040517f08c379a00000000000000000000000000000000000000000000000000000000081526004016108dc90611ef4565b60405180910390fd5b600061016a60003373ffffffffffffffffffffffffffffffffffffffff1673ffffffffffffffffffffffffffffffffffffffff16815260200190815260200160002060009054906101000a900460ff1660ff1614610978576040517f08c379a000000000000000000000000000000000000000000000000000000000815260040161096f90611f86565b60405180910390fd5b67016345785d8a00003410156109c3576040517f08c379a00000000000000000000000000000000000000000000000000000000081526004016109ba90611ff2565b60405180910390fd5b61017060019054906101000a900460ff1660ff166101688054905010610a1e576040517f08c379a0000000000000000000000000000000000000000000000000000000008152600401610a159061205e565b60405180910390fd5b600161016a60003373ffffffffffffffffffffffffffffffffffffffff1673ffffffffffffffffffffffffffffffffffffffff16815260200190815260200160002060006101000a81548160ff021916908360ff16021790555043610171819055506101735433604051602001610a9692919061207e565b6040516020818303038152906040528051906020012061017381905550610abb611190565b610168339080600181540180825580915050600190039060005260206000200160009091909190916101000a81548173ffffffffffffffffffffffffffffffffffffffff021916908373ffffffffffffffffffffffffffffffffffffffff160217905550565b6101696020528060005260406000206000915090505481565b61016a6020528060005260406000206000915054906101000a900460ff1681565b61017060009054906101000a900460ff1681565b60006001811115610b8357610b82611b7c565b5b61017060009054906101000a900460ff166001811115610ba657610ba5611b7c565b5b14610be6576040517f08c379a0000000000000000000000000000000000000000000000000000000008152600401610bdd90611ef4565b60405180910390fd5b60006101688054905011610c2f576040517f08c379a0000000000000000000000000000000000000000000000000000000008152600401610c26906120f3565b60405180910390fd5b606461017154610c3f9190611e08565b431180610c64575061017060019054906101000a900460ff1660ff1661016880549050145b15610c9657600161017060006101000a81548160ff02191690836001811115610c9057610c8f611b7c565b5b02179055505b610c9e610399565b565b6101688181548110610cb157600080fd5b906000526020600020016000915054906101000a900473ffffffffffffffffffffffffffffffffffffffff1681565b61017260009054906101000a900473ffffffffffffffffffffffffffffffffffffffff1681565b6000600180811115610d1c57610d1b611b7c565b5b61017060009054906101000a900460ff166001811115610d3f57610d3e611b7c565b5b14610d7f576040517f08c379a0000000000000000000000000000000000000000000000000000000008152600401610d7690611c98565b60405180910390fd5b60008061016e8054905011905060005b60038160ff1610156110dd576000605a8260ff1660038110610db457610db3611cec565b5b605a02018560ff16605a8110610dcd57610dcc611cec565b5b01805480602002602001604051908101604052809291908181526020018280548015610e4e57602002820191906000526020600020905b8160009054906101000a900473ffffffffffffffffffffffffffffffffffffffff1673ffffffffffffffffffffffffffffffffffffffff1681526020019060010190808311610e04575b5050505050905060005b81518160ff1610156110c8576000828260ff1681518110610e7c57610e7b611cec565b5b60200260200101519050600561016b8560ff1660038110610ea057610e9f611cec565b5b0160008373ffffffffffffffffffffffffffffffffffffffff1673ffffffffffffffffffffffffffffffffffffffff168152602001908152602001600020600081819054906101000a900460ff16610ef790611d4a565b91906101000a81548160ff021916908360ff160217905560ff16036110b45784610f805761016e819080600181540180825580915050600190039060005260206000200160009091909190916101000a81548173ffffffffffffffffffffffffffffffffffffffff021916908373ffffffffffffffffffffffffffffffffffffffff1602179055505b61016a60008273ffffffffffffffffffffffffffffffffffffffff1673ffffffffffffffffffffffffffffffffffffffff168152602001908152602001600020600081819054906101000a900460ff1680929190610fdd90611d4a565b91906101000a81548160ff021916908360ff16021790555050600461016a60008373ffffffffffffffffffffffffffffffffffffffff1673ffffffffffffffffffffffffffffffffffffffff16815260200190815260200160002060009054906101000a900460ff1660ff16036110b35761016f819080600181540180825580915050600190039060005260206000200160009091909190916101000a81548173ffffffffffffffffffffffffffffffffffffffff021916908373ffffffffffffffffffffffffffffffffffffffff1602179055505b5b5080806110c090611d4a565b915050610e58565b505080806110d590611d4a565b915050610d8f565b50600061016f8054905011915050919050565b6000600181111561110457611103611b7c565b5b61017060009054906101000a900460ff16600181111561112757611126611b7c565b5b14611167576040517f08c379a000000000000000000000000000000000000000000000000000000000815260040161115e90611ef4565b60405180910390fd5b61116f61143f565b6111776115b0565b61117f61183d565b610168600061118e91906118f7565b565b600060018111156111a4576111a3611b7c565b5b61017060009054906101000a900460ff1660018111156111c7576111c6611b7c565b5b14611207576040517f08c379a00000000000000000000000000000000000000000000000000000000081526004016111fe90611ef4565b60405180910390fd5b6101735460405160200161121b9190611cd1565b604051602081830303815290604052805190602001206101738190555060005b60038160ff16101561143c5761124f611918565b60005b60058160ff161015611427576000605a6101735460001c6112739190611dd7565b9050610173548160405160200161128b929190612113565b60405160208183030381529060405280519060200120610173819055506000600a826112b7919061213c565b9050838160ff16600981106112cf576112ce611cec565b5b6020020151156112e0575050611252565b82806112eb90611d4a565b9350506001848260ff166009811061130657611305611cec565b5b60200201901515908115158152505060008260ff16605a811061132c5761132b611cec565b5b01339080600181540180825580915050600190039060005260206000200160009091909190916101000a81548173ffffffffffffffffffffffffffffffffffffffff021916908373ffffffffffffffffffffffffffffffffffffffff160217905550605a8560ff16600381106113a5576113a4611cec565b5b605a02018260ff16605a81106113be576113bd611cec565b5b01339080600181540180825580915050600190039060005260206000200160009091909190916101000a81548173ffffffffffffffffffffffffffffffffffffffff021916908373ffffffffffffffffffffffffffffffffffffffff1602179055505050611252565b5050808061143490611d4a565b91505061123b565b50565b6000600181111561145357611452611b7c565b5b61017060009054906101000a900460ff16600181111561147657611475611b7c565b5b146114b6576040517f08c379a00000000000000000000000000000000000000000000000000000000081526004016114ad90611ef4565b60405180910390fd5b60005b605a8160ff1610156115ad5760008160ff16605a81106114dc576114db611cec565b5b0160006114e991906118f7565b605a6000600381106114fe576114fd611cec565b5b605a02018160ff16605a811061151757611516611cec565b5b01600061152491906118f7565b605a60016003811061153957611538611cec565b5b605a02018160ff16605a811061155257611551611cec565b5b01600061155f91906118f7565b605a60026003811061157457611573611cec565b5b605a02018160ff16605a811061158d5761158c611cec565b5b01600061159a91906118f7565b80806115a590611d4a565b9150506114b9565b50565b600060018111156115c4576115c3611b7c565b5b61017060009054906101000a900460ff1660018111156115e7576115e6611b7c565b5b14611627576040517f08c379a000000000000000000000000000000000000000000000000000000000815260040161161e90611ef4565b60405180910390fd5b60005b610168805490508160ff16101561183a5760006101688260ff168154811061165557611654611cec565b5b9060005260206000200160009054906101000a900473ffffffffffffffffffffffffffffffffffffffff169050600061016a60008373ffffffffffffffffffffffffffffffffffffffff1673ffffffffffffffffffffffffffffffffffffffff16815260200190815260200160002060006101000a81548160ff021916908360ff160217905550600061016b6000600381106116f4576116f3611cec565b5b0160008373ffffffffffffffffffffffffffffffffffffffff1673ffffffffffffffffffffffffffffffffffffffff16815260200190815260200160002060006101000a81548160ff021916908360ff160217905550600061016b60016003811061176257611761611cec565b5b0160008373ffffffffffffffffffffffffffffffffffffffff1673ffffffffffffffffffffffffffffffffffffffff16815260200190815260200160002060006101000a81548160ff021916908360ff160217905550600061016b6002600381106117d0576117cf611cec565b5b0160008373ffffffffffffffffffffffffffffffffffffffff1673ffffffffffffffffffffffffffffffffffffffff16815260200190815260200160002060006101000a81548160ff021916908360ff16021790555050808061183290611d4a565b91505061162a565b50565b6000600181111561185157611850611b7c565b5b61017060009054906101000a900460ff16600181111561187457611873611b7c565b5b146118b4576040517f08c379a00000000000000000000000000000000000000000000000000000000081526004016118ab90611ef4565b60405180910390fd5b61016e60006118c391906118f7565b61016f60006118d291906118f7565b565b60405180610b400160405280605a90602082028036833780820191505090505090565b5080546000825590600052602060002090810190611915919061193b565b50565b604051806101200160405280600990602082028036833780820191505090505090565b5b8082111561195457600081600090555060010161193c565b5090565b600060ff82169050919050565b61196e81611958565b82525050565b60006020820190506119896000830184611965565b92915050565b600080fd5b6000819050919050565b6119a781611994565b81146119b257600080fd5b50565b6000813590506119c48161199e565b92915050565b600073ffffffffffffffffffffffffffffffffffffffff82169050919050565b60006119f5826119ca565b9050919050565b611a05816119ea565b8114611a1057600080fd5b50565b600081359050611a22816119fc565b92915050565b60008060408385031215611a3f57611a3e61198f565b5b6000611a4d858286016119b5565b9250506020611a5e85828601611a13565b9150509250929050565b611a7181611994565b82525050565b6000602082019050611a8c6000830184611a68565b92915050565b600080600060608486031215611aab57611aaa61198f565b5b6000611ab9868287016119b5565b9350506020611aca868287016119b5565b9250506040611adb868287016119b5565b9150509250925092565b611aee816119ea565b82525050565b6000602082019050611b096000830184611ae5565b92915050565b60008060408385031215611b2657611b2561198f565b5b6000611b34858286016119b5565b9250506020611b45858286016119b5565b9150509250929050565b600060208284031215611b6557611b6461198f565b5b6000611b7384828501611a13565b91505092915050565b7f4e487b7100000000000000000000000000000000000000000000000000000000600052602160045260246000fd5b60028110611bbc57611bbb611b7c565b5b50565b6000819050611bcd82611bab565b919050565b6000611bdd82611bbf565b9050919050565b611bed81611bd2565b82525050565b6000602082019050611c086000830184611be4565b92915050565b600060208284031215611c2457611c2361198f565b5b6000611c32848285016119b5565b91505092915050565b600082825260208201905092915050565b7f47616d652066696e697368656400000000000000000000000000000000000000600082015250565b6000611c82600d83611c3b565b9150611c8d82611c4c565b602082019050919050565b60006020820190508181036000830152611cb181611c75565b9050919050565b6000819050919050565b611ccb81611cb8565b82525050565b6000602082019050611ce66000830184611cc2565b92915050565b7f4e487b7100000000000000000000000000000000000000000000000000000000600052603260045260246000fd5b7f4e487b7100000000000000000000000000000000000000000000000000000000600052601160045260246000fd5b6000611d5582611958565b915060ff8203611d6857611d67611d1b565b5b600182019050919050565b6000611d7e82611958565b9150611d8983611958565b9250828203905060ff811115611da257611da1611d1b565b5b92915050565b7f4e487b7100000000000000000000000000000000000000000000000000000000600052601260045260246000fd5b6000611de282611994565b9150611ded83611994565b925082611dfd57611dfc611da8565b5b828206905092915050565b6000611e1382611994565b9150611e1e83611994565b9250828201905080821115611e3657611e35611d1b565b5b92915050565b7f4e6f742061646d696e0000000000000000000000000000000000000000000000600082015250565b6000611e72600983611c3b565b9150611e7d82611e3c565b602082019050919050565b60006020820190508181036000830152611ea181611e65565b9050919050565b7f47616d65206f6e676f696e670000000000000000000000000000000000000000600082015250565b6000611ede600c83611c3b565b9150611ee982611ea8565b602082019050919050565b60006020820190508181036000830152611f0d81611ed1565b9050919050565b7f4164647265737320616c7265616479207375627363726962656420666f72206e60008201527f65787420706c6179000000000000000000000000000000000000000000000000602082015250565b6000611f70602883611c3b565b9150611f7b82611f14565b604082019050919050565b60006020820190508181036000830152611f9f81611f63565b9050919050565b7f496e73756666696369656e742066756e64730000000000000000000000000000600082015250565b6000611fdc601283611c3b565b9150611fe782611fa6565b602082019050919050565b6000602082019050818103600083015261200b81611fcf565b9050919050565b7f526567697374726174696f6e206d61786564206f757400000000000000000000600082015250565b6000612048601683611c3b565b915061205382612012565b602082019050919050565b600060208201905081810360008301526120778161203b565b9050919050565b60006040820190506120936000830185611cc2565b6120a06020830184611ae5565b9392505050565b7f4e6f20706c617965727320737562736372696265640000000000000000000000600082015250565b60006120dd601583611c3b565b91506120e8826120a7565b602082019050919050565b6000602082019050818103600083015261210c816120d0565b9050919050565b60006040820190506121286000830185611cc2565b6121356020830184611965565b9392505050565b600061214782611958565b915061215283611958565b92508261216257612161611da8565b5b82820690509291505056fea2646970667358221220d3c6602fd3e6f86522c6a0b22149dc2bdf28ce4d9c7ce9a8bab4c526db49bfc564736f6c63430008100033",
  "immutableReferences": {},
  "source": "// SPDX-License-Identifier: MIT\npragma solidity >=0.5.0 <0.9.0;\n\n/* Bingo game (british style)\n* Each card has 3 lines, each line containing 5 numbers\n*\n* Each line cannot repeat a number in the same tenths\n* E.g. 10 and 15 in the same line is not possible\n* \n* Numbers are drawn and the first player(s) filling a line\n* win part of the prize\n*\n* The first player(s) filling two lines win another part\n* The first player(s) filling the whole card (full house)\n* win the remaining part of the prize\n*\n* Extra rules:\n*   Only one card per address\n*   Each card costs 0.1 Ether\n* Prizes:\n*   30% to first full line\n*   70% to full house\n*/\n\ncontract Bingo {\n\n  enum State {\n      finished,\n      started\n  }\n\n  uint256 constant MAX_INT = 2**256 - 1;\n  uint constant cardPrice = 0.1 ether;\n  // Blocks produced between last card and start of game\n  uint constant timeOut = 100;\n  // mapping of ball number to list of addresses\n  address[][90] public cards;\n  address[][90][3] public lines;\n\n  address[] public players;\n\n  // prizes of previous runs\n  mapping (address => uint) public prizes;\n\n  // counter of matches for current run\n  mapping (address => uint8) public counter;\n  mapping (address => uint8)[3] public counterLines;\n \n  address[] oneLineWinners;\n  address[] fullHouseWinners;\n  \n  // current state\n  State public state = State.finished;\n  // maximum number of cards per run\n  uint8 public maxCards;\n  uint public timeLastCard;\n  address public admin;\n  bytes32 private seed = 0x75e07b686570bbcc103a79ccc90ff45b93f46fd6054bf080b0005512e6415e71;\n\n  modifier onlyAdmin {\n    require (msg.sender == admin, \"Not admin\"); \n    _;\n  }\n  modifier onlyFinished {\n    require (state == State.finished, \"Game ongoing\");\n    _;\n  }\n  modifier onlyStarted {\n    require (state == State.started, \"Game finished\");\n    _;\n  }\n  \n  constructor (uint8 _maxCards) {\n      maxCards = _maxCards;\n      admin = msg.sender;\n  }\n\n\n  /* Callout number\n  * Winners are found in this function\n  *\n  * @param  _number Number being called out\n  * @return a player won the game?\n  */\n  function callOutNumber (uint8 _number) internal onlyStarted returns (bool) {\n    bool prizeOneLine = oneLineWinners.length > 0;\n\n    // find matches in line. Find line winner\n    for (uint8 line = 0; line < 3; line++) {\n        address[] memory lineMatches = lines[line][_number];\n\n        for (uint8 m = 0; m < lineMatches.length; m++) {\n            address matchedAddress = lineMatches[m];\n           \n            // if line is full \n            if (++counterLines[line][matchedAddress] == 5) {\n                if (!prizeOneLine) oneLineWinners.push(matchedAddress);\n                counter[matchedAddress]++;\n               \n                // check if card is full too \n                // remember the counter = 1 to check if address is registered\n                if (counter[matchedAddress] == 4) {\n                    // WINNER!!\n                    fullHouseWinners.push(matchedAddress);\n                }\n            }\n        }\n    }\n\n    // Return true if there was a winner\n    return fullHouseWinners.length > 0;\n  }\n\n  /* Draw a number from the pool number\n  * The number is generated pseudorandomly internally\n  * British bingo has 90 balls\n  * @param  <param> <description>\n  * @return <description> \n  */\n  function drawGameNumbers () public onlyStarted {\n    seed = keccak256(abi.encode(seed));\n    uint8[90] memory draws;\n\n    for (uint8 i = 0; i < 90; i++) {\n        draws[i] = i;\n    }\n\n    // randomly permute a sequence of 90 numbers (Fisher-Yates)\n    for (uint8 i = 0; i < 90; i++) {\n        // number between i (zero-index) and 89\n        uint8 number = uint8(uint256(seed) % (90-i) + i);\n        \n        // swap positions\n        uint8 temp = draws[number];\n        draws[number] = draws[i];\n        draws[i] = temp;\n\n        // call out number in position i;\n        bool win = callOutNumber(draws[i]);\n        if (win) break;\n    }\n  }\n\n  function drawCardNumbers () private onlyFinished {\n    seed = keccak256(abi.encode(seed));\n  \n    \n    for (uint8 line = 0; line < 3; line++) {\n      bool[9] memory numberInSlot;\n      uint8   numbersInLine;\n      while (numbersInLine < 5) {\n        // zero-index number\n        uint8 number = uint8(uint256(seed) % 90);\n        seed = keccak256(abi.encode(seed, number));\n\n        uint8 slot = number % 10;\n        if (numberInSlot[slot]) continue;\n        \n        numbersInLine++;\n        numberInSlot[slot] = true;\n        cards[number].push(msg.sender);\n        lines[line][number].push(msg.sender);\n      }\n    }  \n  }\n\n  /* Generate a card for msg.sender\n  *\n  * @param  <param> <description>\n  * @return <description> \n  */\n  function generateCard () public payable onlyFinished {\n    require(counter[msg.sender] == 0, \"Address already subscribed for next play\");\n    require(msg.value >= cardPrice, \"Insufficient funds\");\n    require(players.length < maxCards, \"Registration maxed out\");\n\n    // Start with 1 to know if address is registered or not\n    counter[msg.sender] = 1;\n    timeLastCard = block.number;\n    // mix the seed with player's address\n    seed = keccak256(abi.encode(seed,msg.sender)); \n\n    drawCardNumbers();\n\n    players.push(msg.sender);\n  }\n \n  /* Collect prize of previous runs\n  */\n  function collectPrize () internal {\n    uint prize = prizes[msg.sender];\n    require (prize > 0, \"Nothing to collect\");\n\n    prizes[msg.sender] = 0;\n\n    // calling send function and at the end\n    // avoids reentrancy attacks\n    payable(msg.sender).transfer(prize);\n  } \n\n  function resetCards() internal onlyFinished {\n     for (uint8 i = 0; i < 90; i++) {\n        delete cards[i];\n        delete lines[0][i];\n        delete lines[1][i];\n        delete lines[2][i];\n     }  \n  }\n\n  function resetCounters() internal onlyFinished {\n      for (uint8 i = 0; i < players.length; i++) {\n        address p = players[i];\n        counter[p] = 0;\n        counterLines[0][p] = 0;\n        counterLines[1][p] = 0;\n        counterLines[2][p] = 0;\n      }\n  }\n\n  function resetWinners() internal onlyFinished {\n      delete oneLineWinners;\n      delete fullHouseWinners;\n  }\n\n  function distributePrizes() internal onlyFinished {\n    uint totalPrize = players.length*cardPrice;\n    uint oneLinePrize = totalPrize*3/10/oneLineWinners.length;\n    uint fullHousePrize = totalPrize*7/10/fullHouseWinners.length;\n\n    for (uint8 i = 0; i < oneLineWinners.length; i++) {\n        prizes[oneLineWinners[i]] += oneLinePrize;\n    } \n    \n    for (uint8 i = 0; i < fullHouseWinners.length; i++) {\n        prizes[fullHouseWinners[i]] += fullHousePrize;\n    } \n  }\n\n  /* A reset after the game is finished\n  */\n  function reset() internal onlyFinished {\n      resetCards();\n      resetCounters();\n      resetWinners();\n      // no need to keep players anymore\n      delete players;\n  }\n\n  function endGame() internal {\n    state = State.finished;\n\n    distributePrizes();\n\n    reset();\n  }\n\n  function startGame() public onlyFinished {\n    require (players.length > 0, \"No players subscribed\");\n    if ( (block.number > timeLastCard + timeOut) || (players.length == maxCards)) {\n        state = State.started;\n    }\n\n    // draw numbers until there is a winner\n    drawGameNumbers();\n\n  }\n\n  /* Force reset during a gameplay\n  * Stakers are redistributed to players\n  */\n  function forceReset() public onlyAdmin onlyStarted {\n    // redistribute stakes to players\n    for (uint8 i = 0; i < players.length; i++) {\n        address p = players[i];\n        prizes[p] += cardPrice;\n    }\n\n    state = State.finished;\n\n    // it's ok to do the soft reset now\n    reset();\n  }\n  \n}\n\n",
  "sourcePath": "/home/matrakilho/portfolio/projects/bingo/contracts/Bingo.sol",
  "compiler": {
    "name": "solc",
    "version": "0.8.16+commit.07a7930e.Emscripten.clang"
  },
  "schemaVersion": "3.4.6",
  "updatedAt": "2022-09-06T14:21:57.053Z",
  "devdoc": {
    "kind": "dev",
    "methods": {},
    "version": 1
  },
  "userdoc": {
    "kind": "user",
    "methods": {},
    "version": 1
  }
}